{
  "_format": "hh-sol-artifact-1",
  "contractName": "StakingContract",
  "sourceName": "contracts/StakingContract.sol",
  "abi": [
    {
      "inputs": [],
      "stateMutability": "payable",
      "type": "constructor"
    },
    {
      "anonymous": false,
      "inputs": [
        {
          "indexed": false,
          "internalType": "address",
          "name": "user",
          "type": "address"
        },
        {
          "indexed": false,
          "internalType": "uint256",
          "name": "rewardAmount",
          "type": "uint256"
        }
      ],
      "name": "RewardsClaimed",
      "type": "event"
    },
    {
      "anonymous": false,
      "inputs": [
        {
          "indexed": true,
          "internalType": "address",
          "name": "user",
          "type": "address"
        },
        {
          "indexed": false,
          "internalType": "uint256",
          "name": "amount",
          "type": "uint256"
        }
      ],
      "name": "Staked",
      "type": "event"
    },
    {
      "anonymous": false,
      "inputs": [
        {
          "indexed": true,
          "internalType": "address",
          "name": "user",
          "type": "address"
        },
        {
          "indexed": false,
          "internalType": "uint256",
          "name": "principal",
          "type": "uint256"
        },
        {
          "indexed": false,
          "internalType": "uint256",
          "name": "reward",
          "type": "uint256"
        }
      ],
      "name": "Withdrawn",
      "type": "event"
    },
    {
      "inputs": [],
      "name": "ANNUAL_PERCENTAGE_RATE",
      "outputs": [
        {
          "internalType": "uint256",
          "name": "",
          "type": "uint256"
        }
      ],
      "stateMutability": "view",
      "type": "function"
    },
    {
      "inputs": [
        {
          "internalType": "address",
          "name": "user",
          "type": "address"
        }
      ],
      "name": "calculateRewards",
      "outputs": [
        {
          "internalType": "uint256",
          "name": "",
          "type": "uint256"
        }
      ],
      "stateMutability": "view",
      "type": "function"
    },
    {
      "inputs": [],
      "name": "claimRewards",
      "outputs": [],
      "stateMutability": "nonpayable",
      "type": "function"
    },
    {
      "inputs": [],
      "name": "stake",
      "outputs": [],
      "stateMutability": "payable",
      "type": "function"
    },
    {
      "inputs": [
        {
          "internalType": "address",
          "name": "",
          "type": "address"
        }
      ],
      "name": "stakedBalance",
      "outputs": [
        {
          "internalType": "uint256",
          "name": "",
          "type": "uint256"
        }
      ],
      "stateMutability": "view",
      "type": "function"
    },
    {
      "inputs": [
        {
          "internalType": "address",
          "name": "",
          "type": "address"
        }
      ],
      "name": "startTime",
      "outputs": [
        {
          "internalType": "uint256",
          "name": "",
          "type": "uint256"
        }
      ],
      "stateMutability": "view",
      "type": "function"
    },
    {
      "inputs": [],
      "name": "withdraw",
      "outputs": [],
      "stateMutability": "nonpayable",
      "type": "function"
    }
  ],
  "bytecode": "0x6080604052610cc8806100136000396000f3fe6080604052600436106100705760003560e01c8063602172671161004e57806360217267146100ad57806364ab8675146100ea5780636e1dc66e14610127578063efdf78a61461016457610070565b8063372500ab146100755780633a4b66f11461008c5780633ccfd60b14610096575b600080fd5b34801561008157600080fd5b5061008a61018f565b005b61009461030c565b005b3480156100a257600080fd5b506100ab610488565b005b3480156100b957600080fd5b506100d460048036038101906100cf9190610824565b6106b6565b6040516100e1919061086a565b60405180910390f35b3480156100f657600080fd5b50610111600480360381019061010c9190610824565b6106ce565b60405161011e919061086a565b60405180910390f35b34801561013357600080fd5b5061014e60048036038101906101499190610824565b6107a4565b60405161015b919061086a565b60405180910390f35b34801561017057600080fd5b506101796107bc565b604051610186919061086a565b60405180910390f35b600061019a336106ce565b9050600081116101df576040517f08c379a00000000000000000000000000000000000000000000000000000000081526004016101d6906108e2565b60405180910390fd5b42600160003373ffffffffffffffffffffffffffffffffffffffff1673ffffffffffffffffffffffffffffffffffffffff1681526020019081526020016000208190555060003373ffffffffffffffffffffffffffffffffffffffff168260405161024990610933565b60006040518083038185875af1925050503d8060008114610286576040519150601f19603f3d011682016040523d82523d6000602084013e61028b565b606091505b50509050806102cf576040517f08c379a00000000000000000000000000000000000000000000000000000000081526004016102c690610994565b60405180910390fd5b7ffc30cddea38e2bf4d6ea7d3f9ed3b6ad7f176419f4963bd81318067a4aee73fe33836040516103009291906109c3565b60405180910390a15050565b6000341161034f576040517f08c379a000000000000000000000000000000000000000000000000000000000815260040161034690610a38565b60405180910390fd5b600061035a336106ce565b905034816000803373ffffffffffffffffffffffffffffffffffffffff1673ffffffffffffffffffffffffffffffffffffffff168152602001908152602001600020546103a79190610a87565b6103b19190610a87565b6000803373ffffffffffffffffffffffffffffffffffffffff1673ffffffffffffffffffffffffffffffffffffffff1681526020019081526020016000208190555042600160003373ffffffffffffffffffffffffffffffffffffffff1673ffffffffffffffffffffffffffffffffffffffff168152602001908152602001600020819055503373ffffffffffffffffffffffffffffffffffffffff167f9e71bc8eea02a63969f509818f2dafb9254532904319f9dbda79b67bd34a5f3d3460405161047d919061086a565b60405180910390a250565b60008060003373ffffffffffffffffffffffffffffffffffffffff1673ffffffffffffffffffffffffffffffffffffffff1681526020019081526020016000205490506000811161050e576040517f08c379a000000000000000000000000000000000000000000000000000000000815260040161050590610b07565b60405180910390fd5b6000610519336106ce565b9050600081836105299190610a87565b905060008060003373ffffffffffffffffffffffffffffffffffffffff1673ffffffffffffffffffffffffffffffffffffffff168152602001908152602001600020819055506000600160003373ffffffffffffffffffffffffffffffffffffffff1673ffffffffffffffffffffffffffffffffffffffff1681526020019081526020016000208190555060003373ffffffffffffffffffffffffffffffffffffffff16826040516105da90610933565b60006040518083038185875af1925050503d8060008114610617576040519150601f19603f3d011682016040523d82523d6000602084013e61061c565b606091505b5050905080610660576040517f08c379a000000000000000000000000000000000000000000000000000000000815260040161065790610b73565b60405180910390fd5b3373ffffffffffffffffffffffffffffffffffffffff167f92ccf450a286a957af52509bc1c9939d1a6a481783e142e41e2499f0bb66ebc685856040516106a8929190610b93565b60405180910390a250505050565b60006020528060005260406000206000915090505481565b6000806000808473ffffffffffffffffffffffffffffffffffffffff1673ffffffffffffffffffffffffffffffffffffffff1681526020019081526020016000205490506000810361072457600091505061079f565b6000600160008573ffffffffffffffffffffffffffffffffffffffff1673ffffffffffffffffffffffffffffffffffffffff16815260200190815260200160002054426107719190610bbc565b905063bbf81e00816005846107869190610bf0565b6107909190610bf0565b61079a9190610c61565b925050505b919050565b60016020528060005260406000206000915090505481565b600581565b600080fd5b600073ffffffffffffffffffffffffffffffffffffffff82169050919050565b60006107f1826107c6565b9050919050565b610801816107e6565b811461080c57600080fd5b50565b60008135905061081e816107f8565b92915050565b60006020828403121561083a576108396107c1565b5b60006108488482850161080f565b91505092915050565b6000819050919050565b61086481610851565b82525050565b600060208201905061087f600083018461085b565b92915050565b600082825260208201905092915050565b7f4e6f207265776172647320746f20636c61696d00000000000000000000000000600082015250565b60006108cc601383610885565b91506108d782610896565b602082019050919050565b600060208201905081810360008301526108fb816108bf565b9050919050565b600081905092915050565b50565b600061091d600083610902565b91506109288261090d565b600082019050919050565b600061093e82610910565b9150819050919050565b7f52657761726420636c61696d206661696c65642e000000000000000000000000600082015250565b600061097e601483610885565b915061098982610948565b602082019050919050565b600060208201905081810360008301526109ad81610971565b9050919050565b6109bd816107e6565b82525050565b60006040820190506109d860008301856109b4565b6109e5602083018461085b565b9392505050565b7f43616e6e6f74207374616b652030000000000000000000000000000000000000600082015250565b6000610a22600e83610885565b9150610a2d826109ec565b602082019050919050565b60006020820190508181036000830152610a5181610a15565b9050919050565b7f4e487b7100000000000000000000000000000000000000000000000000000000600052601160045260246000fd5b6000610a9282610851565b9150610a9d83610851565b9250828201905080821115610ab557610ab4610a58565b5b92915050565b7f4e6f7468696e6720746f20776974686472617700000000000000000000000000600082015250565b6000610af1601383610885565b9150610afc82610abb565b602082019050919050565b60006020820190508181036000830152610b2081610ae4565b9050919050565b7f5769746864726177616c206661696c6564000000000000000000000000000000600082015250565b6000610b5d601183610885565b9150610b6882610b27565b602082019050919050565b60006020820190508181036000830152610b8c81610b50565b9050919050565b6000604082019050610ba8600083018561085b565b610bb5602083018461085b565b9392505050565b6000610bc782610851565b9150610bd283610851565b9250828203905081811115610bea57610be9610a58565b5b92915050565b6000610bfb82610851565b9150610c0683610851565b9250828202610c1481610851565b91508282048414831517610c2b57610c2a610a58565b5b5092915050565b7f4e487b7100000000000000000000000000000000000000000000000000000000600052601260045260246000fd5b6000610c6c82610851565b9150610c7783610851565b925082610c8757610c86610c32565b5b82820490509291505056fea2646970667358221220d40189e33a72d11238985c43d75f1812648bf1c4d481389f96d8d3c2e254e00e64736f6c634300081c0033",
  "linkReferences": {},
  "deployedLinkReferences": {}
}